:1000000000200020F90000006704000067040000E1
:100010006704000067040000670400006504000036
:10002000650400006504000065040000670400002A
:100030006704000065040000670400006904000014
:10004000670400006704000067040000511B000003
:1000500067040000670400006704000067040000F4
:1000600067040000670400006704000067040000E4
:1000700067040000670400006704000067040000D4
:1000800067040000670400006704000067040000C4
:1000900067040000670400006704000067040000B4
:1000A00067040000670400006704000067040000A4
:1000B0006704000067040000670400006704000094
:1000C000670400006704000067040000410A0000A4
:1000D0006704000067040000670400006704000074
:1000E0006704000067040000670400006704000064
:1000F000670400006704000008B54A4B10214CF269
:1001000020524DF628101A80188023F80E1C00F09B
:10011000B3F9454B454A46481A605860454B196843
:1001200011F4807204D144484FF4A8510260196060
:10013000424B1A7802F00800C1B219B11A7842F0A5
:100140000800187000233E4A3E499818884204D29D
:100150003D48195899500433F5E73C493C4A9142CF
:100160004FF0000002D241F8040BF7E7394B3A4A4E
:1001700018600A21394B11702420A021187003F84F
:10018000011C374A107800F00203D9B20029F8D0D8
:10019000334A107800F01003D9B20029F8D1304A60
:1001A000107800F00C03082BF9D12E4803214022CF
:1001B000017042702A4B197801F02000C2B2002A67
:1001C000F8D0274B197801F04000C2B2002AF8D0CD
:1001D0002549264B264A19602020107020490B78AB
:1001E00003F00C000C28F9D12249234B02220A60AB
:1001F00041F8443C21494BF67F300722086041F822
:10020000042C62B600F092F90B4B1868C30702D5B4
:100210001B4800F051F901F081FD00F02DF900F0CC
:1002200075FFFEE70E20054038800440823F040041
:100230000100002B10D0034014D0034002D007402F
:1002400080090020580E00209C200000580E00203D
:10025000001D002008ED00E000500640014006406F
:10026000064006400440064000000311448004405C
:100270000040064048800440C010050014E000E043
:1002800000DD6850FFFFFFFFFFFFFFFFFFFFFFFFE5
:10029000FFFFFFFFFFFFFFFFFFFFFFFFFFFFFFFF6E
:1002A000FFFFFFFFFFFFFFFFFFFFFFFFFFFFFFFF5E
:1002B000FFFFFFFFFFFFFFFFFFFFFFFFFFFFFFFF4E
:1002C000FFFFFFFFFFFFFFFFFFFFFFFFFFFFFFFF3E
:1002D000FFFFFFFFFFFFFFFFFFFFFFFFFFFFFFFF2E
:1002E000FFFFFFFFFFFFFFFFFFFFFFFFFFFFFFFF1E
:1002F000FFFFFFFFFFFFFFFFFFFFFFFFFFFFFFFF0E
:10030000FFFFFFFFFFFFFFFFFFFFFFFFFFFFFFFFFD
:10031000FFFFFFFFFFFFFFFFFFFFFFFFFFFFFFFFED
:10032000FFFFFFFFFFFFFFFFFFFFFFFFFFFFFFFFDD
:10033000FFFFFFFFFFFFFFFFFFFFFFFFFFFFFFFFCD
:10034000FFFFFFFFFFFFFFFFFFFFFFFFFFFFFFFFBD
:10035000FFFFFFFFFFFFFFFFFFFFFFFFFFFFFFFFAD
:10036000FFFFFFFFFFFFFFFFFFFFFFFFFFFFFFFF9D
:10037000FFFFFFFFFFFFFFFFFFFFFFFFFFFFFFFF8D
:10038000FFFFFFFFFFFFFFFFFFFFFFFFFFFFFFFF7D
:10039000FFFFFFFFFFFFFFFFFFFFFFFFFFFFFFFF6D
:1003A000FFFFFFFFFFFFFFFFFFFFFFFFFFFFFFFF5D
:1003B000FFFFFFFFFFFFFFFFFFFFFFFFFFFFFFFF4D
:1003C000FFFFFFFFFFFFFFFFFFFFFFFFFFFFFFFF3D
:1003D000FFFFFFFFFFFFFFFFFFFFFFFFFFFFFFFF2D
:1003E000FFFFFFFFFFFFFFFFFFFFFFFFFFFFFFFF1D
:1003F000FFFFFFFFFFFFFFFFFFFFFFFFFFFFFFFF0D
:10040000FFFFFFFFFFFFFFFFFFFFFFFFFEFFFFFFFD
:1004100010B5054C237833B9044810B10448AFF344
:1004200000800121217010BD580E00200000000046
:100430009C20000008B5064B1BB106480649AFF3E7
:1004400000800648016811B1054A02B1904708BD15
:10045000000000009C2000005C0E0020580E0020D0
:1004600000000000FEE7FEE7024B1A68501C18600F
:10047000704700BF740E00207047034A13681818B5
:1004800010601846704700BF8009002000207047A8
:10049000002070474FF0FF3070474FF0FF3070473B
:1004A000FEE7FEE701207047704700BF014B186868
:1004B000704700BF00D00340044B054900221A607A
:1004C0000A60044A106010201860704714D003407E
:1004D00004D0034000D0034000280EDB02024FF49A
:1004E0008073B2F5004F06D3013B012BC0EB020134
:1004F00001D00A46F5E7100A10E0404202024FF42C
:100500008073B2F5014F06D3013B012BC0EB020112
:1005100001D00A46F5E7110AC1F58070013B024996
:1005200040EA0320086070470CD00340104B114A8A
:1005300000204BF6FF7110B518600F4C596028234E
:100540001360936013619361136293621363936307
:1005500009222260094C20600948016009490B60AA
:100560008B60094B1A60BDE8104000F0CDBC00BFA5
:10057000048003400C80034000800340049003404B
:10058000089003400C9003400090034018B11028DD
:1005900028BF102000E00120014B1870704700BFF9
:1005A0008409002010B500234FF4377242FA03F299
:1005B000914202D80133072BF6D1164A42FA03F2D0
:1005C00002EB5102B2FBF1F101394FF6FF72914299
:1005D00028BF1146C21E012A06D80F4A0F4C002020
:1005E000106020600E480FE0421F012A06D909283A
:1005F00004D00A2802D01438032809D8094A0A4C22
:10060000002010602060094843F008030160136077
:1006100010BD00BF006CDC0200900340049003405A
:10062000089003400080034004800340088003409A
:10063000212810B518D80D4A52F8303093F880426E
:100640003CB1012011B183F8800010BD83F8000196
:1006500010BD02EBC00043681A6811B142F00301FB
:1006600001E022F00201196010BD00BFFC1E000075
:10067000212805D8034B53F8300090F8000270474A
:1006800000207047FC1E0000212816D80B4A02EB00
:10069000C00301295B6852F8302004D182F880122F
:1006A0004FF4A27108E0002082F8800211B94FF4E3
:1006B000807101E040F2031119607047FC1E0000D8
:1006C00038B53B4B1A7801250029044605FA02F398
:1006D00001DC002102E0994205D32946FFF7A8FF7B
:1006E000204629465FE00338C3B2012B94BF314B4B
:1006F000314B1B6801334B4323FA02F3142849D8CA
:10070000DFE800F00B11171D4848232948484848E6
:1007100048484848482F353B410028484FF451721B
:100720000360274834E0274A274813604FF451728A
:100730002EE0264926480B6040F2444228E0254836
:1007400040F244420360244822E0244A24481360D3
:1007500040F244421CE0234923480B6040F24442EB
:1007600016E0224840F244420360214810E0214A4A
:100770002148136040F244420AE0204920480B60BF
:1007800040F2444204E01F491F480B6040F24442DB
:10079000026038BD7F292046D4BF00210121FFF728
:1007A00047FF20460121BDE83840FFF76DBF00BF7D
:1007B0008409002008900340088003401090034003
:1007C0003090044018900340349004404880034027
:1007D0001CC004403080034010C00440208003400F
:1007E0000CB004402880034010B00440388003401F
:1007F00014C004404080034018C0044010800340EF
:1008000004B004401880034008B0044072B60B4B9B
:100810000B480C491A680368086862B6410102D5A2
:10082000322A88BF0133C2F53B427F323021B2FB0E
:10083000F1F24FF47A7000FB0320704718E000E0FB
:10084000740E002004ED00E038B50446FFF7DEFF2B
:10085000054654B1FFF7DAFF401BB0F57A7FF9D3B4
:10086000013C02D005F57A75F4E738BD10B50023D8
:10087000020F044CA25CCA5202330001102BF7D1C4
:1008800010BD00BF0C20000010B50D4B0D4C1868BA
:10089000A11CFFF7EBFF0C4804F112010068FFF701
:1008A000E5FF0A49086804F12201FFF7DFFF084A63
:1008B000106804F13201BDE81040FFF7D7BF00BF58
:1008C0005480044086090020588004405C80044025
:1008D0006080044070B50C4B0C4C1A7842F0020555
:1008E00004EBC50682F00102706058781A70002887
:1008F0000CBF8826C82646EA014180F0010044F872
:100900003510587070BD00BF780E002000E0FF1F4A
:1009100001280CD172B6074B586808B142685A607A
:10092000054B02881988891A198062B67047002021
:10093000704700BF780E0020FC1C002001280AD15F
:10094000064B996872B6002019B10A884968801868
:10095000FAE762B670470020704700BF780E0020AB
:10096000012809D1054B996872B6002011B10130F8
:100970004968FBE762B6704700207047780E002098
:1009800072B6104B197801F00802D3B22BB10E4B9E
:100990000E4A196A39B1996A51B162B60B4B0022FD
:1009A0001A7300F027BB0A4908305862196203E045
:1009B0000830D86207489862137B581E107362B6DD
:1009C000704700BF1D20000000E0FF1F780E0020D0
:1009D00088004000C8004000012828D172B61448A1
:1009E000437B032B08D8DFE803F010021204022235
:1009F00000E004220F4B0CE082680D4B0AB99960AD
:100A000001E01B695960016110E0032200E005224A
:100A1000094B427313F0080F01F108000988586070
:100A20000CBF8822C82242EA0140186062B67047B3
:100A3000780E002038E0FF1F30E0FF1F00BE704737
:100A40002DE9F041994B187800F00402D1B261B160
:100A5000974B1A7F32B1597F21B14A1ED1B25977D3
:100A600001B900BE914A0423137000F00801CAB214
:100A7000002A00F0F2818F4D29788F4D0C094FEA42
:100A8000910740F0658155F8370005EBC701C0F3C9
:100A900083024B68511E0C2900F25681DFE811F0E9
:100AA0002F012F01540154015401540154015401E8
:100AB00033015401540154010D001A687C487F49E8
:100AC0005B68026245F8371092B27B4943620125A8
:100AD0000023B2F5A06F83620B618B61457000F05B
:100AE000A48012D8822A7FD005D8802A40F0C38003
:100AF00003754375C3E0B2F5817F00F0888040F252
:100B000002339A4240F0B78091E0B2F5086F65D0A9
:100B100008D8A2F5D062012A00F2AD80428C818C07
:100B2000674B97E0B2F5106F40F0A58090F8226017
:100B30000C6A0677200603D5486A083800F05AFA8E
:100B40005B4C606820B1456800F054FA2846F9E72C
:100B50006060E062A06820B1466800F04BFA304661
:100B6000F9E7534D5749A86028610880687B821EC9
:100B7000032A07D8DFE802F002040204002300E0A1
:100B800001236B7300242C734F4D50482978484E35
:100B9000017001F00802D3B2DBB100F0FFF9464C5E
:100BA00090B9357B2062691C317300F0F7F9424B34
:100BB00028B998623E48027B541C047309E03F4DFB
:100BC0000830D8629D6204E0414E083060622662BF
:100BD000EBE7394900230B638B6326E0037F044670
:100BE00004F8143F2B464DE0818C012943D8394A43
:100BF00003758C004375A3181E7806F00201CCB271
:100C0000002C3CD00446022304F8145F3AE0828CA6
:100C100002F07F03012B2EDC438C63BB2D4D96002D
:100C20007419207820F0020121701C462AE0818C82
:100C300001F07F02012A1EDC438CE3B9254D8E00B2
:100C40007419207840F00201EEE733F80C5C95420D
:100C500007D00C3353F8084CA3F10C00002CF4D14E
:100C600009E033F80A5C8D42F3D1150A032D0CBF5D
:100C70002378038906E0174B0F221A703CE0022309
:100C800000F114040A48C68CB34238BF1E46402EF9
:100C900034BF3546402520462946FFF71BFE761B0C
:100CA0002C4419D1402D27D1354619E0802007402A
:100CB000780E00209020074000E0FF1FC800400091
:100CC0002C200000FC1C00201D200000C420074038
:100CD00088004000C0200740402E34BF35464025E4
:100CE00020462946FFF7F6FD761B2C4401D1402D06
:100CF00002D1794A946216860120784923E0784A25
:100D000045F8372020E0744EB56A8DB1378E402FFC
:100D100034BF3C46402421462846FFF7DBFD391B03
:100D20008BB233860BB9402C00D12B196A488362F1
:100D300069490A8CB2F5A06F06D1002381F82130F1
:100D400091F8220067490870644B0120187080E018
:100D500005EBC70601F008027368013CD2B2A3F1AB
:100D60000800E4B2002A3FD000F044F95A4B03EBEC
:100D700084018A680AB350688860181902F1080172
:100D80007160417B03290FD8DFE801F00205080BF1
:100D90001C19032307E01C19022304E01C19052376
:100DA00001E01C190423637316F0080F12880CBFAE
:100DB0008820C82040EA024349E01819427B032AF0
:100DC0000AD8DFE802F0464602051C19002301E0BC
:100DD0001C19012363733CE016F0080F1C440CBF80
:100DE00002210321617334E055F83710090C23F810
:100DF000081C31B3DFF8E0C023F8062C4FEA840E5C
:100E000043F8042C0CEB0E035A6802B1DB6A0CEBBE
:100E10000E025860D0623448DFF8BC8030F81430DD
:100E2000C91820F8141000F0B9F810B1083070603B
:100E300007E098F80C2045F83700501C88F80C00A3
:100E400007E0274B294916F0080F08BF0B4645F865
:100E50003730274A08211170F4E5C10721D51F4812
:100E6000244B224D022404701B4C1D602146743417
:100E700001F8342B1A6159609A619D60DC601E4B49
:100E80000D2119701D49FF230B7001F8083C0A74ED
:100E90001B4A13701B4B9F21012219700270BDE881
:100EA000F081020605D5144A0D238021137002F843
:100EB000401C00F00203DAB22AB1104B197802226A
:100EC000197003F8082C00F01000C3B213B1084ADF
:100ED00010211170BDE8F081780E002094200740A9
:100EE000C800400098200740FC1C002088004000FB
:100EF0008020074000E0FF1FC020074088200740F7
:100F00008C2007408420074008B5FFF7BDFC1D4B2F
:100F10001D4800221A609A601A619A611A6201687B
:100F20005A60DA605A61DA615A6241F480220260E2
:100F30001648802101700178144A0906FBD414492F
:100F4000C3F307200870C3F3074008751B0EFF208A
:100F50000B7601F81C0C01F8140C01F88C0C1178BC
:100F6000012041F040030021137002F8780C094B76
:100F700002F80C1C084902F8880C082210201A609C
:100F8000087008BD00E0FF1F348004400C210740BA
:100F90009C20074004E100E00821074010B572B62C
:100FA0000023124A52F8231011B90133042BF8D14F
:100FB000B1FA81F000EB4312672A02D962B6002031
:100FC00010BD02F01F004FF0004424FA00F021EAA7
:100FD0000001064840F8231062B6054948235A43E9
:100FE000881800238B50436010BD00BF200A0020EA
:100FF00040ECFF1F0F4B4822C11AB1FBF2F3672BE5
:1010000016D80D490A7822B10C490A780AB1FFF7BF
:10101000B7BC590972B60A4A4FF0004003F01F03EB
:1010200020FA03F352F82100034342F8213062B65C
:10103000704700BF40ECFF1F840E0020940E00207C
:10104000200A0020F0B516781D785F789B78059C03
:10105000464301FB0566557892784543504301FBB2
:101060000300294B01FB0755310EC6F3074203EB82
:101070004106B6F8AC11B6F8AE71C2F580764E43B3
:1010800002FB07662F0EC5F3074203EB4705B5F8D1
:10109000AE13B5F8B073C2F580754D4302FB07552A
:1010A000020E03EB4203C0F30740B3F8B025B3F8D8
:1010B000B27594F90010C0F58073534300FB0730FC
:1010C00094F9012094F9023001EB162602EB152564
:1010D00003EB102106F1800080F31002100A05F1E5
:1010E0008003361A83F310020002120A01F1800312
:1010F00083F310031B0AAD1AC91A40EA0240267096
:101100006570A1701843F0BD2C0F00202DE9F04F41
:101110000D208BB00121FFF7B7FA104800F030FC2A
:10112000DFF840A0504600F0DDFB9AF8B23703F03C
:101130000200C1B2C1B90A4ADAF804101368DAF839
:101140000020099309984B6E516EC01A5A1A9042AA
:1011500028BF10460304B3FBF2F107E0E01C0020B7
:10116000740E00202C0F00204FF48031EA4A6FF4F7
:10117000807310684B4303F18072E84B079001EBDA
:10118000012102F58030002205900691049303921C
:101190000398DFF88CA34FF0150BB0FBFBF10BFBB2
:1011A0001103DAF800000322534350F82120DAF843
:1011B000040050F821E00499059800910933D218F1
:1011C00006997344FFF73EFF430860F318698208ED
:1011D00063F310490309C10862F3082963F318682F
:1011E000420961F3000962F310488109020AC30948
:1011F00061F3082862F31867410A63F3000861F39A
:101200001047830A010BC20A63F3082761F31866CB
:10121000430B62F3000763F31046820B030C62F387
:10122000082663F31865420CC10B62F31045020DEA
:1012300061F3000662F31864810C039AC30C61F336
:10124000082520FA0BF1403263F3000561F31044E6
:10125000830DB2FBFBF1C00D63F3082460F30004BF
:101260000BFB112303204343DAF80020DAF80400D3
:1012700052F8212050F821C0049905980933C03153
:10128000D218009163440699FFF7DCFE430860F32F
:101290005969820863F351490309C10862F3492976
:1012A00063F35968420961F3410962F351488109C6
:1012B000020AC30961F3492862F35967410A63F3DB
:1012C000410861F35147830A010BC20A63F34927BE
:1012D00061F35966430B62F3410763F35146820B96
:1012E000030C62F3492663F35965420CC10B62F3A8
:1012F0005145020D61F3410662F35964810C039A72
:10130000C30C61F3492520FA0BF1803263F34105E8
:1013100061F35144830DB2FBFBF1C00D63F349242B
:1013200060F341040BFB112303204343DAF8002050
:10133000DAF8040052F8212050F821E0049909332A
:1013400001F5C070D2180090734406990598FFF714
:1013500079FE430860F39A69820863F392490309AE
:10136000C10862F38A2963F39A684209C30961F3E9
:10137000820962F392488109020A61F38A2862F3C2
:101380009A67410A63F3820861F39247830A010B6B
:10139000C20A63F38A2761F39A66430B62F38207FA
:1013A00063F39246820B030C62F38A2663F39A6519
:1013B000420CC10B62F39245020D61F3820662F3A7
:1013C0009A64810C039AC30C61F38A2520FA0BF10D
:1013D000C03263F3820561F39244830DB2FBFBF1EB
:1013E000C00D63F38A2460F382040BFB11230320F6
:1013F0004343DAF80020DAF8040052F8212050F8CC
:1014000021C00499093301F51070D218009063448B
:1014100006990598FFF716FE430860F3DB6982081A
:1014200063F3D3490309C10862F3CB2963F3DB6893
:10143000420961F3C30962F3D3488109020AC3096F
:1014400061F3CB2862F3DB67410A63F3C30861F3FE
:10145000D347830A010BC20A63F3CB2761F3DB6630
:10146000430B62F3C30763F3D346820B030CC10B38
:1014700062F3CB2663F3DB65420C61F3C30662F3D0
:10148000D345810C020DC30C61F3CB2562F3DB6401
:1014900020FA0BF1039A63F3C30561F3D344830D80
:1014A00063F3CB2402F58073B3FBFBF1C00D60F353
:1014B000C3040BFB113303204343DAF80020DAF8AE
:1014C000040052F8212050F821E00499093301F575
:1014D0004070D2180090734406990598FFF7B2FD4A
:1014E000430860F31C79820863F314590309C108A7
:1014F00062F30C3963F31C78420961F3041962F357
:1015000014588109020AC30961F30C3862F31C778D
:10151000410A63F3041805E0EC1C0020E0160020EB
:101520002C0F002061F31457830A010BC20A63F3E6
:101530000C3761F31C76430B62F3041763F3145604
:10154000820B030CC10B62F30C3663F31C75420C67
:1015500061F3041662F31455810C020DC30C61F3A0
:101560000C3562F31C7420FA0BF1039A63F3041533
:1015700061F31454830D63F30C3402F5A073B3FBD1
:10158000FBF1C00D60F304140BFB11330320434344
:10159000DAF80020DAF8040052F8212050F821C0CF
:1015A0000499093301F57070D218009063440699CC
:1015B0000598FFF747FD430860F35D79820863F300
:1015C00055590309C10862F34D3963F35D78420947
:1015D00061F3451962F355588109020AC30961F3A1
:1015E0004D3862F35D77410A63F3451861F355574F
:1015F000830A010BC20A63F34D3761F35D76430B37
:1016000062F3451763F35556820B030CC10B62F36B
:101610004D3663F35D75420C61F3451662F3555523
:10162000810C020DC30C61F34D3562F35D7420FA39
:101630000BF1039A63F3451561F35554830D63F37E
:101640004D3402F5C073B3FBFBF1C00D60F34514DC
:101650000BFB113303204343DAF80020DAF80400CF
:1016600052F8212050F821E00499093301F59060E7
:10167000D2180090734406990598FFF7E3FC4308DD
:1016800060F39E79820863F396590309C10862F3F7
:101690008E3963F39E78420961F3861962F3965896
:1016A0008109020AC30961F38E3862F39E77410A09
:1016B00063F3861861F39657830A010BC20A63F33A
:1016C0008E3761F39E76430B62F3861763F396566B
:1016D000820B030C62F38E3663F39E75420CC10BD2
:1016E00062F39655020D61F3861662F39E74810CC7
:1016F000039AC30C61F38E3520FA0BF163F3861560
:1017000061F39654830D02F5E071C00D63F38E34DE
:10171000B1FBFBF30BFB131C60F38614DAF800102B
:10172000032000FB0CF2DAF8040002F1090C51F876
:101730002320049950F8233001F5A8600090069901
:10174000059862446344FFF77DFC420860F3DF794B
:10175000830862F3D7590209C10863F3CF3962F3F2
:10176000DF78430961F3C71963F3D7588109030A86
:10177000C20961F3CF3863F3DF77410A62F3C71818
:1017800061F3D757820AC30A010B62F3CF3761F3C3
:10179000DF76420B63F3C71762F3D756830B020C55
:1017A000C10B63F3CF3662F3DF75430C61F3C716E9
:1017B00063F3D755810C030DC20C61F3CF3563F38E
:1017C000DF7420FA0BF162F3C71561F3D754820D71
:1017D000079B0399C3F81080C00D62F3CF3460F308
:1017E000C7140498C3F814904A1C83E8F000183317
:1017F0000793C31C402A039204937FF4C9AC0748A3
:1018000000F0C8F99AF8B217CB077FF589AC002130
:101810004FF4C062024800F0CBFA81E4E01C0020E3
:10182000E01600202DE9F0410F4C04F10C0704F103
:101830007406384600F01CF804F1DC05304600F070
:1018400017F8284600F014F804F5A27000F010F81C
:10185000064A276006F55460402100236660A560B3
:10186000BDE8F04100F080B82C0F002040E0FF1FE1
:1018700070B505460024FFF791FB00210646402283
:1018800000F1080000F094FA2E510434642CF2D1D7
:10189000284670BD064A83681268016882B00192CA
:1018A000019A5A664268816080E80C0002B0704775
:1018B000740E002010B500231F21B3FBF1F201FBD1
:1018C000123100EB82044A000A32D4F84411895ADA
:1018D00000EB43020133A2F8AC1140F203318B421A
:1018E000EAD110BD38B5044600250120FFF710F8F5
:1018F000024690B3017A01F0200501F01F0301F0C8
:10190000C0014029EDB212D0802920D011BBA168BE
:10191000182B9CBF51F8230041F82320FFF76AFBE6
:101920000DB90125E1E72046FFF7B4FFF9E7182BD1
:1019300005D804EB8303D3F84401C3F84421FFF72F
:1019400059FB002DEDD02046FFF7B4FFE9E7427ABE
:1019500084F8B227FFF74EFBE3E70D202946BDE8E8
:101960003840FEF765BE00BF30B5044C1825218015
:1019700005FB01216260A160237330BDE41C0020DF
:10198000F8B55C4D5C4E2B88686818245C430021D8
:10199000224600F00DFA22460021A86800F008FA5D
:1019A000FF20012130600220FEF76EFE0E20012193
:1019B000FEF76AFE07200121FEF766FE08200121DE
:1019C000FEF762FE06200121FEF75EFE14200121D3
:1019D000FEF75AFE15200121FEF756FE05200121D3
:1019E000FEF752FE297B454B454D01F01002D7B260
:1019F000002F0CBF1F462F460820FEF7C7FD3946B3
:101A00000320FEF7CFFD39460420FEF7CBFD03206F
:101A10003C21FEF755FE0420B021FEF751FE394867
:101A200039493A4D086003200221FEF72DFE0F20B0
:101A30000021FEF729FE364A364B37482A6002F568
:101A400000771F600168DFF800C141F020020260EA
:101A500050F8045C314945F0020740F8047C3048F6
:101A6000304F00230360C3600F602F488B80CB8012
:101A70002E4901220A604B6088602D488B81A1B2FB
:101A80000180C0F802300820ACF80000ACF8021069
:101A9000ACF80820ACF80A30CCF80C20C4F1000CEB
:101AA000244CC4F800C0DFF8A4C0C4F804C02381EB
:101AB0006181E36020826182676123836383E261E5
:101AC0001D4A1D461360566013815181D3601B4B24
:101AD0000A221A8059801A49B2220D70B3230A7063
:101AE000B1224D704B708D708A7016491C3408609D
:101AF000F8BD00BFE41C0020C8F00F4000350C000A
:101B0000801A06000003010000A0044000B0044059
:101B100000010200349004404080044020900040C6
:101B20000080004074200000C4F00F402890004066
:101B3000369000404C9000406C9000407C900040FB
:101B40000110024000E100E03C900040C0F00F4076
:101B500008B5054B03221A70FEF758FE03490861C9
:101B60000020087508BD00BF1F800040E41C002055
:101B700010B5074C237D43B9FEF748FE2169401A92
:101B800031288CBF0020012010BD012010BD00BFF6
:101B9000E41C002008B51B4B1A7D002AFBD1986875
:101BA000596858609960184B1860FEF72FFE154A67
:101BB0001169401A3128F8D9144B196818331B6879
:101BC00072B601201075124A10689842FBD910684D
:101BD0009842FCD810689842FCD30C4B0D4801F099
:101BE000E7021A600122026000F5805002600A4A92
:101BF0004FF400501060094A0E201060196062B660
:101C000008BD00BFE41C002040900040009003404D
:101C100004900340A0A00440A09004400C80004029
:101C20002DE9F041274C2568D5F8484184B0074696
:101C3000002C41D066681F2E1CDD234810B94FF0E0
:101C4000FF301FE04FF4C870039102920193AFF38D
:101C500000800399029A019B04460028EFD0D5F832
:101C60004861002060602660C5F84841C4F88801DA
:101C7000C4F88C01656847B9A81C013544F82010E8
:101C80006560002004B0BDE8F081D4F888610120CF
:101C900004EB850800FA05F00643022FC8F88820F7
:101CA000C4F88861C8F80831E6D1D4F88C3143EA29
:101CB0000002C4F88C21DFE705F5A674C5F8484199
:101CC000B8E700BF7C2000000000000070B5114B99
:101CD000114C181B811018D004EB81044E1E3546A0
:101CE00054F8042D06F00106904775B126B154F85A
:101CF000043D9847013D08D054F8040D8047013D4C
:101D000054F8041D8847013DF6D1BDE8704000F04D
:101D1000C3B900BF0000000000000000F8B5204F6C
:101D2000204C381B871017D07A1E2368012502F03B
:101D300001069847AF420FD02EB154F8041F022578
:101D40008847AF4208D0606880470235A268261DE8
:101D500090470834AF42F6D1134F144C00F090F97D
:101D60003B1B9F1018D07D1E216805F00106012540
:101D70008847AF4211D02EB154F8040F0225804796
:101D8000AF420BD0626890470235A368261D984782
:101D90000834AF42F6D1F8BDF8BDF8BDF8BD00BFBC
:101DA0008C2000008C200000982000008C20000077
:101DB000F0B48407034600F08E80541E002A00F021
:101DC0008880E507CEB211D41A46671E02F8016B6F
:101DD0001346154692070FD0002C7AD003F8016BFA
:101DE0009A073C461D4607D0013CEDE7034603F841
:101DF000016B9A071D46F7D1032C52D9CEB246EAA1
:101E000006270F2C47EA07432DD9A4F110021746E5
:101E10000F2FC2F300162B606B60AB60EB6005F117
:101E2000100216D93EB1103F136053609360D36027
:101E300010320F2F0DD9203F02F1100613605360AE
:101E40009360D360136153619361D36120320F2F8C
:101E5000F1D8A4F1100222F00F0204F00F041032A6
:101E6000032C15441DD9271F3E462A46032E42F84F
:101E7000043BC7F380070DD927B1043E032E42F877
:101E8000043B07D91746083E47F8043B53603A1D08
:101E9000032EF7D8231F23F00302131D04F00304BD
:101EA000ED18B4B12B46C9B203F8011B2C19ED4350
:101EB0006219A34202F001050BD01DB103F8011B0A
:101EC000A34206D01A4602F8011B5970531CA342C4
:101ED000F8D1F0BC7047054614468DE7024B13B1AC
:101EE000024800F005B8704700000000CD1C00005B
:101EF0000146002002460346FFF792BE4008FE431B
:101F000040A004404408FE4344A004400018FE439F
:101F100000C004403000FE43309004403400FE43D3
:101F2000349004401C18FE431CC004401018FE43AB
:101F300010C004400818FE4308C004400C18FE43BB
:101F40000CC004400C10FE430CB004401010FE43C3
:101F500010B004401810FE4318B004401C10FE439B
:101F60001CB004401410FE4314B004400418FE4397
:101F700004C004400010FE4300B004400008FE43CB
:101F800000A004400408FE4304A004400C08FE43E3
:101F90000CA004400808FE4308A004401418FE43A7
:101FA00014C004401818FE4318C004400410FE4337
:101FB00004B004400810FE4308B004401400FE437F
:101FC000149004404C08FE434CA004400420FE43FF
:101FD00004D004402410FE4324B004402010FE43EB
:101FE00020B004402810FE4328B004402C10FE43CB
:101FF0002CB004400020FE4300D004404808FE43BB
:1020000048A004401000FE431090044030313233A9
:1020100034353637383941424344454600190000CB
:1020200000010000F2090020120000000002000080
:10203000040A00201900000000030000EE0900203F
:102040000000000001030904DC090020000000007A
:1020500002030904C809002000000000030309046A
:1020600086090020000000000000000000000000C1
:1020700000000000FFFFFFFF43000000300A0020C7
:10208000F8B500BFF8BC08BC9E467047DD1E0000D6
:082090003504000025180000D2
:04209800F8B500BFD8
:10209C00001D0020080042030000000000000000AA
:1020AC000000000000000000000000000000000024
:1020BC000000000000000000000000000000000014
:1020CC000000000000000000000000000000000004
:1020DC0000000000000000001403460061006400D2
:1020EC006500630061006E006400790012037300E8
:1020FC00630061006E006C0069006D0065000403F4
:10210C00090412010002FF000040501D7A6000011A
:10211C000102030109021900010100C03209040087
:10212C000001FF0000000705010240000000000054
:10213C00FFFFFFFFFFFFFFFFFFFFFFFFFFFFFFFFA3
:10214C00000000001C0D0020840D0020EC0D002070
:10215C000000000000000000000000000000000073
:10216C000000000000000000000000000000000063
:10217C0000000000782000000000000000000000BB
:10218C000000000000000000000000000000000043
:10219C000000000000000000000000000000000033
:1021AC000000000000000000000000000000000023
:1021BC000000000000000000000000000000000013
:1021CC000000000000000000000000000000000003
:1021DC0000000000000000000000000000000000F3
:1021EC0000000000000000000100000000000000E2
:1021FC000E33CDAB34126DE6ECDE05000B000000A7
:10220C0000000000000000000000000000000000C2
:10221C0000000000000000000000000000000000B2
:10222C0000000000000000000000000000000000A2
:10223C000000000000000000000000000000000092
:00000001FF
